:020000040800F2
:100000000000012055230008512200085922000851
:100010006122000869220008712200080000000027
:10002000000000000000000000000000792200082D
:10003000872200080000000095220008A322000883
:10004000A5230008A5230008A5230008A523000870
:10005000A5230008A5230008A5230008A523000860
:10006000A5230008A5230008A5230008A523000850
:10007000A5230008A5230008A5230008A523000840
:10008000A5230008A5230008A52300080000000000
:10009000000000000000000000000000A523000890
:1000A000A5230008A5230008A5230008A523000810
:1000B000A5230008A5230008A5230008A523000800
:1000C000A5230008A5230008A5230008A5230008F0
:1000D000A5230008A5230008B122000800000000A5
:1000E000A5230008A5230008A523000800000000A0
:1000F000000000000000000000000000A523000830
:1001000000000000A5230008A5230008A52300087F
:1001100000000000000000000000000000000000DF
:10012000A5230008A5230008A5230008A52300088F
:10013000A5230008000000000000000000000000EF
:10014000000000000000000000000000A5230008DF
:10015000A5230008A5230008A5230008A52300085F
:10016000A5230008A52300080000000000000000EF
:10017000000000000000000000000000000000007F
:1001800000000000A523000800000000000000009F
:04019000A52300089B
:1001A00010B5054C237833B9044B13B10448AFF3B1
:1001B00000800123237010BDB0000020000000006B
:1001C0004855000808B5034B1BB103490348AFF37A
:1001D000008008BD00000000B40000204855000861
:1001E000034613F8012B002AFBD1181A0138704777
:1001F00001F0FF01102A2BDB10F0070F08D010F8D8
:10020000013B013A8B422DD010F0070F42B3F6D1DB
:10021000F0B441EA012141EA014122F007047FF0F4
:1002200000070023F0E80256083C85EA010586EA4B
:10023000010685FA47F5A3FA87F586FA47F6A5FA87
:1002400087F68EB9EED1F0BC01F0FF0102F0070293
:1002500032B110F8013B013A83EA010313B1F8D13E
:100260000020704701387047002D06BF354603381F
:10027000073815F0010F07D1013015F4807F02BF58
:10028000013015F4C03F0130F0BC0138704700BFA9
:1002900053B94AB9002908BF00281CBF4FF0FF31ED
:1002A0004FF0FF3000F06AB9ADF1080C6DE904CEF3
:1002B00000F006F8DDF804E0DDE9022304B0704741
:1002C0002DE9F047089D0C46002B4ED194468C45F5
:1002D0008646B2FA82F262D94AB1C2F12003914055
:1002E00020FA03F30CFA02FC194300FA02FE4FEA6B
:1002F0001C471FFA8CF6B1FBF7F44FEA1E4307FBCD
:10030000141143EA014304FB06F199420AD91CEB9C
:10031000030304F1FF3080F01281994240F20F8113
:10032000023C6344591A1FFA8EF3B1FBF7F007FB46
:10033000101143EA014300FB06F69E420AD91CEB6A
:10034000030300F1FF3180F0FC809E4240F2F9800F
:10035000634402389B1B40EA044000211DB1D34096
:100360000022C5E90032BDE8F0878B4205D90DB106
:10037000C5E9000100210846F5E7B3FA83F1002939
:1003800046D1A34202D39042C0F0F080861A64EBBB
:1003900003030120002DE6D0C5E90063E3E7002A4E
:1003A00040F09080A1EB0C044FEA1C481FFA8CF738
:1003B0000121B4FBF8F64FEA1E4308FB164443EA5A
:1003C000044307FB06F0984208D91CEB030306F12F
:1003D000FF3402D2984200F2CD8026461C1A1FFA42
:1003E0008EF3B4FBF8F008FB104443EA044300FB2F
:1003F00007F79F4208D91CEB030300F1FF3402D238
:100400009F4200F2B0802046DB1B40EA0640A5E791
:10041000C1F120068B4022FA06F71F4320FA06FCA2
:1004200004FA01F343EA0C03F44000FA01F8380C33
:100430004FEA1349B4FBF0FE1FFA87FC00FB1E4491
:1004400049EA04440EFB0CF9A14502FA01F20AD96B
:100450003C190EF1FF3A80F08480A14540F2818082
:10046000AEF1020E3C44A4EB09041FFA83F9B4FB7D
:10047000F0F300FB134449EA044403FB0CFCA445DD
:1004800007D93C1903F1FF3067D2A44565D9023B77
:100490003C4443EA0E40A0FB0293A4EB0C049C42B4
:1004A000CE469C4651D34ED055B1B8EB0E0364EB0B
:1004B0000C0404FA06F6CB401E43CC40C5E90064A8
:1004C000002150E7C2F1200320FA03F10CFA02FCEC
:1004D00024FA03F394400C434FEA1C4800FA02FE4E
:1004E0001FFA8CF7B3FBF8F008FB1031230C43EA3A
:1004F000014300FB07F1994208D91CEB030300F10B
:10050000FF362CD299422AD9023863445B1AA4B22E
:10051000B3FBF8F108FB113344EA034401FB07F392
:10052000A34208D91CEB040401F1FF3613D2A34205
:1005300011D902396444E41A41EA004139E704461A
:10054000F0E6084606E7C845AED2B9EB020E63EB0B
:10055000070C0138A8E73146EDE7034699E7304636
:10056000D4E7D6467FE7634402384DE70646234684
:1005700008460FE7023E634430E700BF704700BF04
:1005800080B4ADF6140D00AF0023C7F80C3801237A
:10059000C7F808382FE007F50163A3F58263D7F8A1
:1005A0000C28D7F8081843F8221007F50163A3F5C3
:1005B0000163D7F80828D7F80C1843F82210D7F8A9
:1005C00008385AB2D7F808385B005BB2D7F8081879
:1005D00001F08001002901D01B2100E000214B40E7
:1005E0005BB253405BB2DBB2C7F80838D7F80C38BF
:1005F0000133C7F80C38D7F80C38FF2BCBDD0023BC
:10060000C7F80C380123C7F808381DE0D7F80828C8
:10061000D649D7F80C3841F82320D7F808385B00C2
:100620005BB2D7F8082802F08002002A01D01B2212
:1006300000E0002253405BB2DBB2C7F80838D7F8BD
:100640000C380133C7F80C38D7F80C38092BDDDD2E
:10065000C74B63221A70C74B002283F86320012323
:10066000C7F80C387EE007F50163A3F50163D7F8FE
:100670000C2853F82230C3F1FF0207F50163A3F5FC
:10068000826353F82230C7F80838D7F80838C7F81B
:100690000438D7F804385B005AB2D7F80438DB11B5
:1006A0005BB213435BB2DBB2C7F80438D7F8082853
:1006B000D7F804385340C7F80838D7F804385B0037
:1006C0005AB2D7F80438DB115BB213435BB2DBB22A
:1006D000C7F80438D7F80828D7F804385340C7F8C3
:1006E0000838D7F804385B005AB2D7F80438DB1161
:1006F0005BB213435BB2DBB2C7F80438D7F8082803
:10070000D7F804385340C7F80838D7F804385B00E6
:100710005AB2D7F80438DB115BB213435BB2DBB2D9
:10072000C7F80438D7F8043883F06303D7F80828EB
:100730005340C7F80838D7F80838D9B28C4AD7F8E8
:100740000C3813440A461A70D7F80C38D9B2894AC3
:10075000D7F8083813440A461A70D7F80C38013312
:10076000C7F80C38D7F80C38FF2B7FF77CAF002385
:10077000C7F80C383BE17E4AD7F80C3813441B7895
:10078000C7F80838D7F808385B005BB2D7F80828F4
:1007900002F08002002A01D01B2200E00022534018
:1007A0005BB2DBB2C7F80438D7F804385AB2D7F8CE
:1007B00008385BB253405BB2DBB2C7F80038D7F8F9
:1007C00008381A02D7F804385A40D7F808381B04FA
:1007D0005A40D7F800381B065A406749D7F80C38FA
:1007E00041F82320644AD7F80C3852F823304FEAF6
:1007F00033626249D7F80C3841F823205F4AD7F8B2
:100800000C3852F823304FEA33625D49D7F80C3880
:1008100041F823205A4AD7F80C3852F823304FEACF
:1008200033625849D7F80C3841F82320514AD7F899
:100830000C3813441B78C7F80838D7F80838002B51
:1008400020D007F50163A3F501639A6B07F50163F7
:10085000A3F50163D7F8081853F821301A444A4B1E
:1008600083FB02131344D911D317C91A0B461B0279
:100870005B1AD11A07F50163A3F5826353F821309F
:10088000184600E00020D7F80838002B20D007F5E4
:100890000163A3F501635A6A07F50163A3F50163D8
:1008A000D7F8081853F821301A44374B83FB02134A
:1008B0001344D911D317C91A0B461B025B1AD11A5C
:1008C00007F50163A3F5826353F821301B0200E0B2
:1008D00000235840D7F80838002B20D007F50163D3
:1008E000A3F501635A6B07F50163A3F50163D7F81C
:1008F000081853F821301A44234B83FB0213134486
:10090000D911D317C91A0B461B025B1AD11A07F566
:100910000163A3F5826353F821301B0400E0002338
:100920005840D7F80838002B30D007F50163A3F5FD
:100930000163DA6A07F50163A3F50163D7F80818C4
:1009400053F821301A44104B83FB02131344D9117E
:10095000D317C91A0B461B025B1AD11A07F501639C
:10096000A3F5826353F821301B0610E0CC2200204F
:10097000CC000020CC110020CC010020CC050020B0
:10098000CC090020CC0D002081808080002383EAE8
:1009900000021D49D7F80C3841F823201A4AD7F82D
:1009A0000C3852F823304FEA33621849D7F80C3824
:1009B00041F82320154AD7F80C3852F823304FEA73
:1009C00033621349D7F80C3841F82320104AD7F87E
:1009D0000C3852F823304FEA33620E49D7F80C38FE
:1009E00041F82320D7F80C380133C7F80C38D7F872
:1009F0000C38FF2B7FF7BFAE00BF00BF07F6140710
:100A0000BD465DF8047B7047CC120020CC16002058
:100A1000CC1A0020CC1E002080B582B000AF7860D8
:100A20004FF48C720021786804F0D6F900BF0837C3
:100A3000BD4680BD80B582B000AF78607B68002B7A
:100A400005D04FF48C71786801F026F900E000BF02
:100A50000837BD4680BD80B483B000AF7860002306
:100A600018460C37BD465DF8047B704790B587B0DB
:100A700000AFF860B9607A607B68B3F5807F12D010
:100A80007B68B3F5807F12D87B68802B03D07B68AE
:100A9000C02B04D00BE0FB680A221A600AE0FB6856
:100AA0000C221A6006E0FB680E221A6002E06FF06A
:100AB0001F03CFE1914B1B68002B04D1FFF760FDB2
:100AC0008E4B01221A60FB6803F10804FB680833AF
:100AD0001846FFF7C0FF03469B0023443B61FB68B9
:100AE0003A695A6000237B6127E07B699B00BA6802
:100AF00013441B7819467B699B000133BA68134481
:100B00001B781B0241EA03027B699B000233B96830
:100B10000B441B781B0442EA03017B699B000333EF
:100B2000BA6813441B781A067B699B003869034432
:100B30000A431A607B6901337B617B685B097A69D0
:100B40009A42D2D3FB681B680E2B00F0D4800E2B88
:100B500000F37F810A2B02D00C2B5CD079E10023BB
:100B60007B6154E03B691A6865497B6951F8233021
:100B700053403A690C321268120AD2B21146614AE5
:100B8000525C5A403B690C331B681B0CDBB21946A4
:100B90005C4B5B5C1B025A403B690C331B681B0EB1
:100BA000DBB21946574B5B5C1B0482EA03013B69CD
:100BB0000C331B68DBB21A46524B9B5C1A063B692E
:100BC00010334A401A603B69043319683B6910339B
:100BD0001A683B6914334A401A603B690833196844
:100BE0003B6914331A683B6918334A401A603B6901
:100BF0000C3319683B6918331A683B691C334A4047
:100C00001A607B6901337B613B6910333B617B690F
:100C1000092BA7D91DE100237B6168E03B691A68B5
:100C200037497B6951F8233053403A6914321268CE
:100C3000120AD2B21146334A525C5A403B6914330D
:100C40001B681B0CDBB219462E4B5B5C1B025A4027
:100C50003B6914331B681B0EDBB21946294B5B5CE6
:100C60001B0482EA03013B6914331B68DBB21A469A
:100C7000244B9B5C1A063B6918334A401A603B6957
:100C8000043319683B6918331A683B691C334A40BE
:100C90001A603B69083319683B691C331A683B6961
:100CA00020334A401A603B690C3319683B69203392
:100CB0001A683B6924334A401A603B69103319684B
:100CC0003B6924331A683B6928334A401A603B6900
:100CD000143319683B6928331A683B692C334A403E
:100CE0001A607B6901337B613B6918333B617B6927
:100CF000072B93D9ADE000237B61A5E0F42200200F
:100D0000CC220020CC0000203B691A6853497B6943
:100D100051F8233053403A691C321268120AD2B299
:100D200011464F4A525C5A403B691C331B681B0CEE
:100D3000DBB219464A4B5B5C1B025A403B691C33D1
:100D40001B681B0EDBB21946454B5B5C1B0482EA39
:100D500003013B691C331B68DBB21A46404B9B5CAA
:100D60001A063B6920334A401A603B69043319680C
:100D70003B6920331A683B6924334A401A603B6957
:100D8000083319683B6924331A683B6928334A40A1
:100D90001A603B690C3319683B6928331A683B6950
:100DA0002C334A401A603B6910331B683A692C3275
:100DB0001268D2B211462A4A525C5A403B692C331F
:100DC0001B681B0ADBB21946254B5B5C1B025A40B1
:100DD0003B692C331B681B0CDBB21946204B5B5C58
:100DE0001B0482EA03013B692C331B681B0EDBB238
:100DF0001A461B4B9B5C1A063B6930334A401A600B
:100E00003B69143319683B6930331A683B693433E2
:100E10004A401A603B69183319683B6934331A68D1
:100E20003B6938334A401A603B691C3319683B6997
:100E300038331A683B693C334A401A607B69013396
:100E40007B613B6920333B617B69062B7FF65CAF9E
:100E500000BF002318461C37BD4690BDCC220020A1
:100E6000CC00002080B58EB000AFF860B9607A6029
:100E7000FB685B683B63BB681B781A46BB68013341
:100E80001B781B021A43BB6802331B781B041A43EE
:100E9000BB6803331B781B0613433B613B6B1A1D76
:100EA0003A631A683B6953403B61BB6804331B7863
:100EB0001A46BB6805331B781B021A43BB6806330E
:100EC0001B781B041A43BB6807331B781B061343AC
:100ED0007B613B6B1A1D3A631A687B6953407B61E7
:100EE000BB6808331B781A46BB6809331B781B02A2
:100EF0001A43BB680A331B781B041A43BB680B33C5
:100F00001B781B061343BB613B6B1A1D3A631A68BF
:100F1000BB695340BB61BB680C331B781A46BB6886
:100F20000D331B781B021A43BB680E331B781B045E
:100F30001A43BB680F331B781B061343FB613B6BE3
:100F40001A1D3A631A68FB695340FB61FB681B6812
:100F50005B10013B7B6322E13B6B1A1D3A631A680D
:100F60003B69DBB21946B04B53F821305A407B69DC
:100F70001B0ADBB21946AD4B53F821305A40BB690E
:100F80001B0CDBB21946AA4B53F821305A40FB69BF
:100F90001B0EDBB21946A74B53F8213053403B627E
:100FA0003B6B1A1D3A631A687B69DBB219469E4B8C
:100FB00053F821305A40BB691B0ADBB219469B4BE0
:100FC00053F821305A40FB691B0CDBB21946984B91
:100FD00053F821305A403B691B0EDBB21946954B42
:100FE00053F8213053407B623B6B1A1D3A631A68F9
:100FF000BB69DBB219468C4B53F821305A40FB6970
:101000001B0ADBB21946894B53F821305A403B6921
:101010001B0CDBB21946864B53F821305A407B69D2
:101020001B0EDBB21946834B53F821305340BB6291
:101030003B6B1A1D3A631A68FB69DBB219467A4B9F
:1010400053F821305A403B691B0ADBB21946774BF3
:1010500053F821305A407B691B0CDBB21946744BA4
:1010600053F821305A40BB691B0EDBB21946714B55
:1010700053F821305340FB623B6B1A1D3A631A68E8
:101080003B6ADBB21946684B53F821305A407B6A01
:101090001B0ADBB21946654B53F821305A40BB6A34
:1010A0001B0CDBB21946624B53F821305A40FB6AE5
:1010B0001B0EDBB219465F4B53F8213053403B61A6
:1010C0003B6B1A1D3A631A687B6ADBB21946564BB2
:1010D00053F821305A40BB6A1B0ADBB21946534B06
:1010E00053F821305A40FB6A1B0CDBB21946504BB7
:1010F00053F821305A403B6A1B0EDBB219464D4B68
:1011000053F8213053407B613B6B1A1D3A631A68D8
:10111000BB6ADBB21946444B53F821305A40FB6A94
:101120001B0ADBB21946414B53F821305A403B6A47
:101130001B0CDBB219463E4B53F821305A407B6AF8
:101140001B0EDBB219463B4B53F821305340BB61B9
:101150003B6B1A1D3A631A68FB6ADBB21946324BC5
:1011600053F821305A403B6A1B0ADBB219462F4B19
:1011700053F821305A407B6A1B0CDBB219462C4BCA
:1011800053F821305A40BB6A1B0EDBB21946294B7B
:1011900053F821305340FB617B6B013B7B637B6BDE
:1011A000002B3FF7D9AE3B6B1A1D3A631A683B69B7
:1011B000DBB219461C4B53F821305A407B691B0A9D
:1011C000DBB21946194B53F821305A40BB691B0C4E
:1011D000DBB21946164B53F821305A40FB691B0EFF
:1011E000DBB21946134B53F8213053403B623B6B43
:1011F0001A1D3A631A687B69DBB219460A4B53F829
:1012000021305A40BB691B0ADBB21946074B53F821
:1012100021305A40FB691B0CDBB21946044B53F8D2
:1012200021305A403B6907E0CC010020CC0500206A
:10123000CC090020CC0D00201B0EDBB219469F4BC1
:1012400053F8213053407B623B6B1A1D3A631A6896
:10125000BB69DBB219469A4B53F821305A40FB69FF
:101260001B0ADBB21946974B53F821305A403B69B1
:101270001B0CDBB21946944B53F821305A407B6962
:101280001B0EDBB219468D4B53F821305340BB6225
:101290003B6B1A1D3A631A68FB69DBB21946884B2F
:1012A00053F821305A403B691B0ADBB21946854B83
:1012B00053F821305A407B691B0CDBB21946824B34
:1012C00053F821305A40BB691B0EDBB219467B4BE9
:1012D00053F821305340FB623B6B1A1D3A631B6885
:1012E0003A6AD2B21146794A525C5A407B6A1B0A6A
:1012F000DBB21946754B5B5C1B025A40BB6A1B0C88
:10130000DBB21946714B5B5C1B045A40FB6A1B0E37
:10131000DBB219466D4B5B5C1B0653403B613B6B7C
:101320001A1D3A631B687A6AD2B21146674A525C48
:101330005A40BB6A1B0ADBB21946644B5B5C1B025A
:101340005A40FB6A1B0CDBB21946604B5B5C1B040A
:101350005A403B6A1B0EDBB219465C4B5B5C1B06BA
:1013600053407B613B6B1A1D3A631B68BA6AD2B269
:101370001146564A525C5A40FB6A1B0ADBB21946B8
:10138000524B5B5C1B025A403B6A1B0CDBB219469A
:101390004E4B5B5C1B045A407B6A1B0EDBB219464A
:1013A0004A4B5B5C1B065340BB613B6B1A1D3A63A7
:1013B0001B68FA6AD2B21146444A525C5A403B6AF0
:1013C0001B0ADBB21946414B5B5C1B025A407B6A2D
:1013D0001B0CDBB219463D4B5B5C1B045A40BB6ADD
:1013E0001B0EDBB21946394B5B5C1B065340FB619D
:1013F0003B69DAB27B681A703B691A0A7B68013371
:10140000D2B21A703B691A0C7B680233D2B21A70DE
:101410003B691A0E7B680333D2B21A707A697B6813
:101420000433D2B21A707B691A0A7B680533D2B2D0
:101430001A707B691A0C7B680633D2B21A707B690A
:101440001A0E7B680733D2B21A70BA697B68083308
:10145000D2B21A70BB691A0A7B680933D2B21A7009
:10146000BB691A0C7B680A33D2B21A70BB691A0EB8
:101470007B680B33D2B21A70FA697B680C33D2B234
:101480001A70FB691A0A7B680D33D2B21A70FB69B5
:101490001A0C7B680E33D2B21A70FB691A0E7B6885
:1014A0000F33D2B21A7007F110032021184600F052
:1014B000F3FB002318463837BD4680BDCC0D002015
:1014C000CC010020CC050020CC090020CC0000205D
:1014D00080B58EB000AFF860B9607A60FB685B6879
:1014E0003B63BB681B781A46BB6801331B781B0241
:1014F0001A43BB6802331B781B041A43BB680333CF
:101500001B781B0613433B613B6B1A1D3A631A6839
:101510003B6953403B61BB6804331B781A46BB6888
:1015200005331B781B021A43BB6806331B781B0468
:101530001A43BB6807331B781B0613437B613B6B65
:101540001A1D3A631A687B6953407B61BB68083394
:101550001B781A46BB6809331B781B021A43BB6809
:101560000A331B781B041A43BB680B331B781B061A
:101570001343BB613B6B1A1D3A631A68BB69534046
:10158000BB61BB680C331B781A46BB680D331B78F4
:101590001B021A43BB680E331B781B041A43BB683B
:1015A0000F331B781B061343FB613B6B1A1D3A6319
:1015B0001A68FB695340FB61FB681B685B10013BC9
:1015C0007B6322E13B6B1A1D3A631A683B69DBB20D
:1015D0001946B04B53F821305A40FB691B0ADBB265
:1015E0001946AD4B53F821305A40BB691B0CDBB296
:1015F0001946AA4B53F821305A407B691B0EDBB2C7
:101600001946A74B53F8213053403B623B6B1A1DE0
:101610003A631A687B69DBB219469E4B53F8213056
:101620005A403B691B0ADBB219469B4B53F82130E9
:101630005A40FB691B0CDBB21946984B53F821301A
:101640005A40BB691B0EDBB21946954B53F821304B
:1016500053407B623B6B1A1D3A631A68BB69DBB26D
:1016600019468C4B53F821305A407B691B0ADBB278
:101670001946894B53F821305A403B691B0CDBB2A9
:101680001946864B53F821305A40FB691B0EDBB2DA
:101690001946834B53F821305340BB623B6B1A1DF4
:1016A0003A631A68FB69DBB219467A4B53F821306A
:1016B0005A40BB691B0ADBB21946774B53F82130FD
:1016C0005A407B691B0CDBB21946744B53F821302E
:1016D0005A403B691B0EDBB21946714B53F821305F
:1016E0005340FB623B6B1A1D3A631A683B6ADBB2DC
:1016F0001946684B53F821305A40FB6A1B0ADBB28B
:101700001946654B53F821305A40BB6A1B0CDBB2BB
:101710001946624B53F821305A407B6A1B0EDBB2EC
:1017200019465F4B53F8213053403B613B6B1A1D08
:101730003A631A687B6ADBB21946564B53F821307C
:101740005A403B6A1B0ADBB21946534B53F821300F
:101750005A40FB6A1B0CDBB21946504B53F8213040
:101760005A40BB6A1B0EDBB219464D4B53F8213071
:1017700053407B613B6B1A1D3A631A68BB6ADBB24C
:101780001946444B53F821305A407B6A1B0ADBB29E
:101790001946414B53F821305A403B6A1B0CDBB2CF
:1017A00019463E4B53F821305A40FB6A1B0EDBB200
:1017B00019463B4B53F821305340BB613B6B1A1D1C
:1017C0003A631A68FB6ADBB21946324B53F8213090
:1017D0005A40BB6A1B0ADBB219462F4B53F8213023
:1017E0005A407B6A1B0CDBB219462C4B53F8213054
:1017F0005A403B6A1B0EDBB21946294B53F8213085
:101800005340FB617B6B013B7B637B6B002B3FF7A2
:10181000D9AE3B6B1A1D3A631A683B69DBB21946B5
:101820001C4B53F821305A40FB691B0ADBB21946A6
:10183000194B53F821305A40BB691B0CDBB21946D7
:10184000164B53F821305A407B691B0EDBB2194608
:10185000134B53F8213053403B623B6B1A1D3A63E4
:101860001A687B69DBB219460A4B53F821305A409B
:101870003B691B0ADBB21946074B53F821305A402B
:10188000FB691B0CDBB21946044B53F821305A405C
:10189000BB6907E0CC120020CC160020CC1A002037
:1018A000CC1E00201B0EDBB219469F4B53F8213093
:1018B00053407B623B6B1A1D3A631A68BB69DBB20B
:1018C00019469A4B53F821305A407B691B0ADBB208
:1018D0001946974B53F821305A403B691B0CDBB239
:1018E0001946944B53F821305A40FB691B0EDBB26A
:1018F00019468D4B53F821305340BB623B6B1A1D88
:101900003A631A68FB69DBB21946884B53F82130F9
:101910005A40BB691B0ADBB21946854B53F821308C
:101920005A407B691B0CDBB21946824B53F82130BD
:101930005A403B691B0EDBB219467B4B53F82130F2
:101940005340FB623B6B1A1D3A631B683A6AD2B282
:101950001146794A525C5A40FB6A1B0ADBB21946AF
:10196000754B5B5C1B025A40BB6A1B0CDBB2194611
:10197000714B5B5C1B045A407B6A1B0EDBB2194641
:101980006D4B5B5C1B0653403B613B6B1A1D3A631E
:101990001B687A6AD2B21146674A525C5A403B6A67
:1019A0001B0ADBB21946644B5B5C1B025A40FB6AA4
:1019B0001B0CDBB21946604B5B5C1B045A40BB6AD4
:1019C0001B0EDBB219465C4B5B5C1B0653407B6114
:1019D0003B6B1A1D3A631B68BA6AD2B21146564A6B
:1019E000525C5A407B6A1B0ADBB21946524B5B5C65
:1019F0001B025A403B6A1B0CDBB219464E4B5B5C28
:101A00001B045A40FB6A1B0EDBB219464A4B5B5C57
:101A10001B065340BB613B6B1A1D3A631B68FA6A95
:101A2000D2B21146444A525C5A40BB6A1B0ADBB22E
:101A30001946414B5B5C1B025A407B6A1B0CDBB2B4
:101A400019463D4B5B5C1B045A403B6A1B0EDBB2E4
:101A50001946394B5B5C1B065340FB613B69DAB2AC
:101A60007B681A703B691A0A7B680133D2B21A701C
:101A70003B691A0C7B680233D2B21A703B691A0EAA
:101A80007B680333D2B21A707A697B680433D2B2AE
:101A90001A707B691A0A7B680533D2B21A707B69A7
:101AA0001A0C7B680633D2B21A707B691A0E7B68F7
:101AB0000733D2B21A70BA697B680833D2B21A708F
:101AC000BB691A0A7B680933D2B21A70BB691A0C57
:101AD0007B680A33D2B21A70BB691A0E7B680B336B
:101AE000D2B21A70FA697B680C33D2B21A70FB69F1
:101AF0001A0A7B680D33D2B21A70FB691A0C7B6824
:101B00000E33D2B21A70FB691A0E7B680F33D2B251
:101B10001A7007F110032021184600F0BDF80023C9
:101B200018463837BD4680BDCC1E0020CC120020A0
:101B3000CC160020CC1A0020CC11002080B584B037
:101B400000AFF860B9607A603B60BB68012B06D1DA
:101B50003A687968F868FFF785F9034605E03A685E
:101B60007968F868FFF7B4FC034618461037BD469D
:101B700080BDB0B58AB000AFF860B9607A603B60F4
:101B80006FF06D033B627B6803F00F03002B02D004
:101B90006FF021037BE0BB68002B6ED13AE0BB6B9A
:101BA00007F11004186859689A68DB680FC4FB6B6A
:101BB000BA6BB968F868FFF7C1FF38623B6A002B5F
:101BC00061D100237B6210E07B6AFA6B13441978C1
:101BD0007B6A3A6813441A787B6AF86B03444A407C
:101BE000D2B21A707B6A01337B627B6A0F2BEBDD0A
:101BF0003B681D4607F110040FCC28606960AA609D
:101C0000EB60BB6B1033BB63FB6B1033FB637B6818
:101C1000103B7B607B68002BC1D131E000237B62ED
:101C200010E07B6ABA6B134419787B6A3A681344F4
:101C30001A787B6AF86B03444A40D2B21A707B6A06
:101C400001337B627B6A0F2BEBDDFB6BFA6BB968B0
:101C5000F868FFF773FF38623B6A002B15D110223A
:101C6000F96B386803F0FCF8BB6B1033BB63FB6B9C
:101C70001033FB637B68103B7B607B68002BCDD10E
:101C800000233B6202E000BF00E000BF3B6A184651
:101C90002837BD46B0BD000080B582B000AF786087
:101CA00039603B68002B05D0044B1B683A68002163
:101CB0007868984700BF0837BD4680BD0000002007
:101CC00090B5CFB002AF07F59873A3F5967318607F
:101CD00007F59873A3F5987319601E4B07F5907478
:101CE0000FCB84E80F0007F108031846FEF794FEB7
:101CF00007F108034FF4807217491846FEF7B6FE45
:101D00000346002B01D001231FE007F5907207F175
:101D1000080007F59873A3F598731B68019307F5FE
:101D20009873A3F596731B68009313461022012144
:101D3000FFF71FFF0346002B01D0012305E007F149
:101D400008031846FEF776FE0023184607F59A7733
:101D5000BD4690BD605500080400002080B584B0E9
:101D600000AF00F0DBFB00F08DF800F015F900F09B
:101D7000E9F801223349344801F09BFF00F0ADFB44
:101D800032493348FFF79CFF3149324800F088F967
:101D900010222E49304800F0B3F9304800F080F9A5
:101DA0002F4B1B78012BFBD12E48FEF719FA034667
:101DB00019462D4800F074F92A48FEF711FA034637
:101DC000102B30D121492748FFF77AFF03461A46E6
:101DD000264B1A70264B1B8819461C4800F0E3FA64
:101DE00003461A46214B1B781343DAB21F4B1A7075
:101DF0001E4B1B78002B12D1102214491D4800F0F5
:101E00007FF91B4B1A883B461146184600F01FFB12
:101E10003B4610221946184800F072F906E01748B0
:101E200000F03EF902E0164800F03AF96422002181
:101E30000C4802F0D1FF0A4B00221A70074800F04C
:101E40002FF9ADE750230020F82200204023002086
:101E5000240000207055000884550008945500089F
:101E6000BA23002054230020B4550008BB230020CF
:101E7000BC230020C0550008D8550008F0550008C4
:101E80000856000880B594B000AF07F12003302257
:101E90000021184602F0A0FF07F10C0300221A608F
:101EA0005A609A60DA601A610023BB60234B1B6C96
:101EB000224A43F080531364204B1B6C03F0805381
:101EC000BB60BB6800237B601D4B1B6823F4404351
:101ED0001B4A43F400431360194B1B6803F440434F
:101EE0007B607B6802233B620123FB6210233B6320
:101EF0000023BB6307F12003184601F0A7F903464E
:101F0000002B01D000F026F90F23FB6000233B617A
:101F100080237B610023BB610023FB6107F10C037D
:101F20000021184601F00AFC0346002B01D000F006
:101F300011F900BF5037BD4680BD00BF00380240D8
:101F40000070004080B500AF114B124A1A60104B70
:101F50004FF416525A600E4B00229A600C4B00222E
:101F6000DA600B4B00221A61094B0C225A61084BB4
:101F700000229A61064B0022DA61054801F0BEFD9D
:101F80000346002B01D000F0E5F800BF80BD00BF84
:101F9000F82200200044004080B588B000AF07F16F
:101FA0000C0300221A605A609A60DA601A610023FA
:101FB000BB60184B1B6B174A43F004031363154BAC
:101FC0001B6B03F00403BB60BB6800237B60114BF9
:101FD0001B6B104A43F0010313630E4B1B6B03F0A2
:101FE00001037B607B68002201210B4801F014F99A
:101FF0000123FB6001233B6100237B610023BB6164
:1020000007F10C031946044800F082FF00BF203797
:10201000BD4680BD003802400008024080B582B055
:1020200000AF78607B681B68174A934228D1174B32
:102030001B780A2B13D0154B1B780D2B0FD0144B8C
:102040001B88622B0BD8124B1B885A1C91B2104A6A
:1020500011801A460D4B19780E4B99540BE00C4B1E
:102060001B881A460B4B00219954094B00221A80F9
:10207000094B01221A7001220449084801F019FE97
:1020800000BF0837BD4680BD0044004050230020FB
:10209000B823002054230020BA230020F822002077
:1020A0000FB480B5C2B000AF07F58A7207F584732C
:1020B000A3F582731A6007F58473A3F5827307F1A1
:1020C00008001B68D7F810214FF4807102F05CFE05
:1020D00007F108031846FEF783F803469AB207F1A2
:1020E00008014FF0FF33054801F058FD00BF07F528
:1020F0008477BD46BDE8804004B07047F8220020D8
:1021000080B586B000AFF860B9601346FB80F9680F
:102110000D48FFF7C5FF00237B610AE0BA687B69C1
:1021200013441B7819460948FFF7BAFF7B6901334E
:102130007B61FB887A699A42F0D30548FFF7B0FFCC
:1021400000BF1837BD4680BD385600083C56000811
:102150004456000880B400AF72B600BF00BFFDE770
:1021600080B483B000AF00237B60104B5B6C0F4AE0
:1021700043F4804353640D4B5B6C03F480437B60FA
:102180007B6800233B60094B1B6C084A43F080537B
:102190001364064B1B6C03F080533B603B6800BF2D
:1021A0000C37BD465DF8047B704700BF0038024025
:1021B00080B58AB000AF786007F1140300221A607E
:1021C0005A609A60DA601A617B681B681D4A934204
:1021D00033D100233B611C4B1B6C1B4A43F400337F
:1021E0001364194B1B6C03F400333B613B69002300
:1021F000FB60154B1B6B144A43F001031363124B36
:102200001B6B03F00103FB60FB680C237B61022363
:10221000BB610023FB6103233B6207237B6207F161
:1022200014031946094800F073FE002200212620FD
:1022300000F0C1FA262000F0DAFA00BF2837BD46C8
:1022400080BD00BF00440040003802400000024052
:1022500080B400AF00BFFDE780B400AF00BFFDE772
:1022600080B400AF00BFFDE780B400AF00BFFDE762
:1022700080B400AF00BFFDE780B400AF00BFBD4633
:102280005DF8047B704780B400AF00BFBD465DF8C9
:10229000047B704780B400AF00BFBD465DF8047B8F
:1022A000704780B500AF00F08BF900BF80BD000023
:1022B00080B500AF024801F021FD00BF80BD00BF26
:1022C000F822002080B586B000AF7860144A154B24
:1022D000D31A7B617B693B61134B1B68002B02D1D6
:1022E000114B124A1A60104B1A687B6813443A6902
:1022F0009A4207D202F088FD03460C221A604FF082
:10230000FF3309E0084B1B68FB60074B1A687B68CA
:102310001344054A1360FB6818461837BD4680BD54
:102320000000012000040000C02300201025002030
:1023300080B400AF064BD3F88830054A43F47003ED
:10234000C2F8883000BFBD465DF8047B704700BF0F
:1023500000ED00E0DFF834D0FFF7EAFF0C480D494C
:102360000D4A002302E0D458C4500433C4188C42F0
:10237000F9D30A4A0A4C002301E013600432A24256
:10238000FBD302F047FDFFF7E9FC70470000012096
:1023900000000020B0000020A4560008B00000207B
:1023A00010250020FEE7B0B586B000AF78600B4680
:1023B0007B807B88B3F5805F01D3012343E07B887A
:1023C00003F5000303F500531B013B6100F00EFB16
:1023D00000237B6131E07B697A6813441B781946DE
:1023E0007B6901337A6813441B781B0241EA0302BC
:1023F0007B69023379680B441B781B041A437B69A1
:10240000033379680B441B781B061343FB607A691E
:102410003B69D118FB6800221C46154622462B4614
:10242000022000F091FA0346002B03D000F000FBDD
:10243000012308E07B6904337B617B690F2BCADDD4
:1024400000F0F6FA002318461837BD46B0BD80B438
:1024500087B000AF78600B467B807B88B3F5805FE8
:1024600001D3012333E07B8803F5000303F5005318
:102470001B013B6100237B6125E07A693B691344C2
:102480001B68FB607B697A681344FA68D2B21A70E1
:10249000FB68190A7B6901337A681344CAB21A705F
:1024A000FB68190C7B6902337A681344CAB21A704C
:1024B000FB68190E7B6903337A681344CAB21A7039
:1024C0007B6904337B617B690F2BD6DD00231846C3
:1024D0001C37BD465DF8047B704780B586B000AF01
:1024E00000F084FA00237B600423FB6001233B613E
:1024F00002237B613A463B1D1146184600F0E8FB7B
:102500000346002B03D000F093FA012302E000F011
:102510008FFA002318461837BD4680BD80B500AF3E
:102520000E4B1B680D4A43F4007313600B4B1B6882
:102530000A4A43F480631360084B1B68074A43F45C
:1025400080731360032000F02BF90F2000F008F8CF
:10255000FFF706FE0023184680BD00BF003C024086
:1025600080B582B000AF7860124B1A68124B1B78AE
:1025700019464FF47A73B3FBF1F3B2FBF3F3184649
:1025800000F043F90346002B01D001230EE07B68E5
:102590000F2B0AD8002279684FF0FF3000F00BF9BA
:1025A000064A7B681360002300E0012318460837C1
:1025B000BD4680BD340000203C00002038000020D3
:1025C00080B400AF064B1B781A46064B1B681344B9
:1025D000044A136000BFBD465DF8047B704700BF2E
:1025E0003C000020C423002080B400AF034B1B68D4
:1025F0001846BD465DF8047B704700BFC423002029
:1026000080B485B000AF78607B6803F00703FB609F
:102610000C4BDB68BB60BA684FF6FF031340BB602E
:10262000FB681A02BB68134343F0BF6343F40033F3
:10263000BB60044ABB68D36000BF1437BD465DF879
:10264000047B704700ED00E080B400AF044BDB6812
:102650001B0A03F007031846BD465DF8047B70476C
:1026600000ED00E080B483B000AF0346FB7197F942
:102670000730002B0BDBFB7903F01F02074997F9AA
:1026800007305B09012000FA02F241F8232000BF65
:102690000C37BD465DF8047B704700BF00E100E0E9
:1026A00080B483B000AF03463960FB7197F90730FF
:1026B000002B0ADB3B68DAB20C4997F907301201AC
:1026C000D2B20B4483F800230AE03B68DAB208492F
:1026D000FB7903F00F03043B1201D2B20B441A76CC
:1026E00000BF0C37BD465DF8047B704700E100E099
:1026F00000ED00E080B489B000AFF860B9607A60A6
:10270000FB6803F00703FB61FB69C3F10703042BBC
:1027100028BF0423BB61FB690433062B02D9FB6984
:10272000033B00E000237B614FF0FF32BB6902FAFC
:1027300003F3DA43BB681A407B699A404FF0FF31DC
:102740007B6901FA03F3D9437B680B4013431846B6
:102750002437BD465DF8047B7047000080B582B029
:1027600000AF78607B68013BB3F1807F01D3012328
:102770000FE00A4A7B68013B53600F214FF0FF30A6
:10278000FFF78EFF054B00229A60044B07221A6068
:10279000002318460837BD4680BD00BF10E000E0AA
:1027A00080B582B000AF78607868FFF729FF00BF7E
:1027B0000837BD4680BD80B586B000AF0346B9601E
:1027C0007A60FB7300237B61FFF73EFF78617A68D4
:1027D000B9687869FFF78EFF024697F90F30114606
:1027E0001846FFF75DFF00BF1837BD4680BD80B5B6
:1027F00082B000AF0346FB7197F907301846FFF728
:1028000031FF00BF0837BD4680BD80B582B000AF44
:1028100078607868FFF7A2FF034618460837BD4680
:1028200080BD80B584B000AF78607B689B6DFB6035
:10283000FFF7DAFEB8607B6893F83530DBB2022B25
:1028400008D07B6880225A657B68002283F8342098
:10285000012352E07B681B681A687B681B6822F0C2
:1028600016021A607B681B685A697B681B6822F035
:1028700080025A617B681B6C002B03D17B689B6CC8
:10288000002B07D07B681B681A687B681B6822F0E6
:1028900008021A607B681B681A687B681B6822F054
:1028A00001021A6013E0FFF79FFE0246BB68D31ACD
:1028B000052B0CD97B6820225A657B68032283F89C
:1028C00035207B68002283F83420032315E07B68E1
:1028D0001B681B6803F00103002BE4D17B68DB6DF0
:1028E0003F229A40FB689A607B68012283F835207A
:1028F0007B68002283F83420002318461037BD4639
:1029000080BD80B483B000AF78607B6893F83530C9
:10291000DBB2022B04D07B6880225A6501230CE0D5
:102920007B68052283F835207B681B681A687B6802
:102930001B6822F001021A60002318460C37BD46BE
:102940005DF8047B7047000080B586B000AFF8608A
:10295000B960C7E90023234B1B7E012B01D1022361
:102960003BE0204B01221A764CF2503000F070F818
:102970000346FB75FB7D002B2BD1FB68002B05D19B
:102980003B781946B86800F01BF916E0FB68012B8C
:1029900005D13B881946B86800F0EEF80DE0FB68F9
:1029A000022B05D13B681946B86800F0C3F804E073
:1029B000D7E90023B86800F08BF84CF2503000F0F3
:1029C00047F80346FB75084B1B69074A23F00103D0
:1029D0001361044B00221A76FB7D18461837BD465A
:1029E00080BD00BF40000020003C024080B483B0A6
:1029F00000AF0023FB710B4B1B69002B0BDA094B5B
:102A0000094A5A60074B094A5A60064B1B69002B5A
:102A100001DA0123FB71FB7918460C37BD465DF8DE
:102A2000047B7047003C024023016745AB89EFCD32
:102A300080B400AF054B1B69044A43F000431361A7
:102A400000231846BD465DF8047B7047003C0240F9
:102A500080B584B000AF78600023FB601A4B002281
:102A6000DA61FFF7C1FDF86010E07B68B3F1FF3F6A
:102A70000CD07B68002B07D0FFF7B6FD0246FB6841
:102A8000D31A7A689A4201D2032319E00F4BDB680C
:102A900003F48033002BE8D10C4BDB6803F0010317
:102AA000002B02D0094B0122DA60084BDB6803F4EB
:102AB000F973002B03D000F0A5F8012300E00023F8
:102AC00018461037BD4680BD40000020003C024043
:102AD00080B485B000AFF860C7E90023144B1B69D0
:102AE000134A23F440731361114B1B69104A43F4DA
:102AF000407313610E4B1B690D4A43F001031361D0
:102B0000FB683A681A60BFF36F8F00BFD7E9000116
:102B10004FF000024FF000030A000023F96804316F
:102B200013460B6000BF1437BD465DF8047B704749
:102B3000003C024080B483B000AF786039600D4B38
:102B40001B690C4A23F4407313610A4B1B69094A41
:102B500043F400731361074B1B69064A43F00103FA
:102B600013617B683A681A6000BF0C37BD465DF898
:102B7000047B7047003C024080B483B000AF7860B3
:102B80000B467B800D4B1B690C4A23F44073136189
:102B90000A4B1B69094A43F480731361074B1B6995
:102BA000064A43F0010313617B687A881A8000BFEC
:102BB0000C37BD465DF8047B704700BF003C024007
:102BC00080B483B000AF78600B46FB700C4B1B6980
:102BD0000B4A23F440731361094B094A1B691361C3
:102BE000074B1B69064A43F0010313617B68FA78BF
:102BF0001A7000BF0C37BD465DF8047B704700BFFC
:102C0000003C024080B400AF2F4BDB6803F01003A0
:102C1000002B08D02D4BDB6943F010032B4AD36106
:102C2000294B1022DA60284BDB6803F02003002BCD
:102C300008D0264BDB6943F00803244AD361224BBA
:102C40002022DA60204BDB6803F04003002B08D021
:102C50001E4BDB6943F004031C4AD3611A4B40222C
:102C6000DA60194BDB6803F08003002B08D0174BA8
:102C7000DB6943F00203154AD361134B8022DA600B
:102C8000114BDB6803F48073002B09D00F4BDB6919
:102C900043F001030D4AD3610B4B4FF48072DA60AD
:102CA000094BDB6803F00203002B08D0074BDB69FC
:102CB00043F02003054AD361034B0222DA6000BFD0
:102CC000BD465DF8047B7047003C02404000002098
:102CD00080B584B000AF786039600023BB60314BB1
:102CE0001B7E012B01D1022358E02E4B01221A76C4
:102CF0004CF25030FFF7ACFE0346FB73FB7B002B1E
:102D000048D13B684FF0FF321A607B681B68012B8B
:102D100015D17B681B69DAB27B685B68194610467F
:102D200000F044F84CF25030FFF792FE0346FB737C
:102D30001D4B1B691C4A23F00403136128E07B68C8
:102D40009B68BB601CE07B681B69DBB21946B868F6
:102D500000F050F84CF25030FFF77AFE0346FB7358
:102D6000114B1B69104A23F0FA031361FB7B002B04
:102D700003D03B68BA681A600AE0BB680133BB60E5
:102D80007B68DA687B689B681344BA689A42DAD336
:102D900000F078F8034B00221A76FB7B18461037B8
:102DA000BD4680BD40000020003C024080B483B09E
:102DB00000AF03463960FB710D4B1B690C4A23F4CD
:102DC000407313610A4B1B69094A43F00403136102
:102DD000074B1A69FB791B021343054A43F48033FE
:102DE000136100BF0C37BD465DF8047B704700BF20
:102DF000003C024080B485B000AF78600B46FB70A9
:102E00000023FB60FB78002B02D10023FB6010E065
:102E1000FB78012B03D14FF48073FB6009E0FB7852
:102E2000022B03D14FF40073FB6002E04FF44073B8
:102E3000FB60134B1B69124A23F440731361104B60
:102E40001A690F49FB6813430B610D4B1B690C4A50
:102E500023F0F80313610A4B1A697B68DB00134304
:102E6000074A43F002031361054B1B69044A43F40C
:102E70008033136100BF1437BD465DF8047B704793
:102E8000003C024080B400AF204B1B6803F4007389
:102E9000002B17D01D4B1B681C4A23F400731360D2
:102EA0001A4B1B68194A43F400631360174B1B68E5
:102EB000164A23F400631360144B1B68134A43F44F
:102EC00000731360114B1B6803F48063002B17D051
:102ED0000E4B1B680D4A23F4806313600B4B1B6879
:102EE0000A4A43F480531360084B1B68074A23F4D3
:102EF00080531360054B1B68044A43F480631360DE
:102F000000BFBD465DF8047B704700BF003C024037
:102F100080B489B000AF7860396000237B61002302
:102F20003B610023BB610023FB6159E10122FB6986
:102F300002FA03F37B613B681B687A6913403B61CB
:102F40003A697B699A4240F048813B685B6803F0CC
:102F50000303012B05D03B685B6803F00303022BDE
:102F600030D17B689B68BB61FB695B00032202FA7E
:102F700003F3DB43BA691340BB613B68DA68FB6962
:102F80005B0002FA03F3BA691343BB617B68BA6959
:102F90009A607B685B68BB610122FB6902FA03F3FC
:102FA000DB43BA691340BB613B685B681B0903F0F4
:102FB0000102FB6902FA03F3BA691343BB617B6840
:102FC000BA695A603B685B6803F00303032B17D0B0
:102FD0007B68DB68BB61FB695B00032202FA03F3D9
:102FE000DB43BA691340BB613B689A68FB695B00CD
:102FF00002FA03F3BA691343BB617B68BA69DA600A
:103000003B685B6803F00303022B23D1FB69DA08FA
:103010007B68083253F82230BB61FB6903F0070379
:103020009B000F2202FA03F3DB43BA691340BB6132
:103030003B681A69FB6903F007039B0002FA03F37C
:10304000BA691343BB61FB69DA087B680832B96966
:1030500043F822107B681B68BB61FB695B0003229D
:1030600002FA03F3DB43BA691340BB613B685B6858
:1030700003F00302FB695B0002FA03F3BA6913432E
:10308000BB617B68BA691A603B685B6803F44033D4
:10309000002B00F0A2800023FB60574B5B6C564A6C
:1030A00043F480435364544B5B6C03F48043FB60F4
:1030B000FB68524AFB699B08023352F82330BB611C
:1030C000FB6903F003039B000F2202FA03F3DB43C7
:1030D000BA691340BB617B68494A934219D07B6847
:1030E000484A934213D07B68474A93420DD07B688D
:1030F000464A934207D07B68454A934201D1042354
:1031000008E0072306E0032304E0022302E0012392
:1031100000E00023FA6902F0030292009340BA69CA
:103120001343BB613549FB699B080233BA6941F817
:103130002320384B9B68BB613B69DB43BA69134072
:10314000BB613B685B6803F48013002B03D0BA6952
:103150003B691343BB612F4ABB6993602D4BDB680E
:10316000BB613B69DB43BA691340BB613B685B6889
:1031700003F40013002B03D0BA693B691343BB610E
:10318000244ABB69D360234B5B68BB613B69DB436B
:10319000BA691340BB613B685B6803F40033002BE2
:1031A00003D0BA693B691343BB611A4ABB695360D8
:1031B000184B1B68BB613B69DB43BA691340BB61B9
:1031C0003B685B6803F48033002B03D0BA693B692A
:1031D0001343BB610F4ABB691360FB690133FB6199
:1031E000FB690F2B7FF6A2AE00BF00BF2437BD46A0
:1031F0005DF8047B704700BF003802400038014092
:10320000000002400004024000080240000C02409E
:1032100000100240003C014080B483B000AF7860F1
:103220000B467B8013467B707B78002B03D07A881B
:103230007B689A6103E07B881A047B689A6100BF0F
:103240000C37BD465DF8047B7047000080B586B042
:1032500000AF78607B68002B01D1012367E27B68B7
:103260001B6803F00103002B75D0884B9B6803F0AB
:103270000C03042B0CD0854B9B6803F00C03082B2C
:1032800012D1824B5B6803F48003B3F5800F0BD13E
:103290007E4B1B6803F40033002B5BD07B685B68BC
:1032A000002B57D1012342E27B685B68B3F5803F76
:1032B00006D1764B1B68754A43F4803313601DE0DA
:1032C0007B685B68B3F5A02F0CD1704B1B686F4A0D
:1032D00043F4802313606D4B1B686C4A43F48033C6
:1032E00013600BE0694B1B68684A23F4803313605A
:1032F000664B1B68654A23F4802313607B685B6818
:10330000002B13D0FFF770F9386108E0FFF76CF974
:1033100002463B69D31A642B01D9032307E25B4BB6
:103320001B6803F40033002BF0D014E0FFF75CF9C6
:10333000386108E0FFF758F902463B69D31A642B5D
:1033400001D90323F3E1514B1B6803F40033002B35
:10335000F0D100E000BF7B681B6803F00203002B84
:1033600063D04A4B9B6803F00C03002B0BD0474BF8
:103370009B6803F00C03082B1CD1444B5B6803F4DF
:103380008003002B16D1414B1B6803F00203002B76
:1033900005D07B68DB68012B01D00123C7E13B4BE3
:1033A0001B6823F0F8027B681B69DB003749134375
:1033B0000B603AE07B68DB68002B20D0344B0122A5
:1033C0001A60FFF711F9386108E0FFF70DF90246BE
:1033D0003B69D31A022B01D90323A8E12B4B1B68AD
:1033E00003F00203002BF0D0284B1B6823F0F802F7
:1033F0007B681B69DB00254913430B6015E0244BF8
:1034000000221A60FFF7F0F8386108E0FFF7ECF8E7
:1034100002463B69D31A022B01D9032387E11B4BD8
:103420001B6803F00203002BF0D17B681B6803F0DC
:103430000803002B36D07B685B69002B16D0154B38
:1034400001221A60FFF7D0F8386108E0FFF7CCF8E6
:1034500002463B69D31A022B01D9032367E10B4BC8
:103460005B6F03F00203002BF0D01BE0094B00223E
:103470001A60FFF7B9F838610EE0FFF7B5F80246B9
:103480003B69D31A022B07D9032350E100380240CD
:1034900000004742800E4742884B5B6F03F00203F7
:1034A000002BEAD17B681B6803F00403002B00F0BB
:1034B00097800023FB75814B1B6C03F08053002B1E
:1034C0000FD10023BB607D4B1B6C7C4A43F08053C3
:1034D00013647A4B1B6C03F08053BB60BB68012301
:1034E000FB75774B1B6803F48073002B18D1744B6A
:1034F0001B68734A43F480731360FFF775F83861F3
:1035000008E0FFF771F802463B69D31A022B01D994
:1035100003230CE16A4B1B6803F48073002BF0D08B
:103520007B689B68012B06D1644B1B6F634A43F099
:10353000010313671CE07B689B68052B0CD15F4B74
:103540001B6F5E4A43F0040313675C4B1B6F5B4ABF
:1035500043F0010313670BE0584B1B6F574A23F0EE
:1035600001031367554B1B6F544A23F00403136781
:103570007B689B68002B15D0FFF736F838610AE0AE
:10358000FFF732F802463B69D31A41F28832934280
:1035900001D90323CBE0494B1B6F03F00203002B3F
:1035A000EED014E0FFF720F838610AE0FFF71CF8CE
:1035B00002463B69D31A41F28832934201D9032370
:1035C000B5E03E4B1B6F03F00203002BEED1FB7DF9
:1035D000012B05D1394B1B6C384A23F080531364FF
:1035E0007B689B69002B00F0A180344B9B6803F043
:1035F0000C03082B5CD07B689B69022B41D1314BBB
:1036000000221A60FEF7F0FF386108E0FEF7ECFFD9
:1036100002463B69D31A022B01D9032387E0274BCB
:103620001B6803F00073002BF0D17B68DA697B68BC
:103630001B6A1A437B685B6A9B011A437B689B6A1F
:103640005B08013B1B041A437B68DB6A1B061B49B2
:1036500013434B601B4B01221A60FEF7C5FF386114
:1036600008E0FEF7C1FF02463B69D31A022B01D9DD
:1036700003235CE0114B1B6803F00073002BF0D0B8
:1036800054E0104B00221A60FEF7AEFF386108E0EC
:10369000FEF7AAFF02463B69D31A022B01D9032386
:1036A00045E0064B1B6803F00073002BF0D13DE0B2
:1036B0007B689B69012B07D1012338E00038024069
:1036C00000700040600047421B4B5B68FB607B68FA
:1036D0009B69012B28D0FB6803F480027B68DB69BF
:1036E0009A4221D1FB6803F03F027B681B6A9A4231
:1036F0001AD1FA6847F6C07313407A68526A920189
:10370000934211D1FB6803F440327B689B6A5B08EB
:10371000013B1B049A4207D1FB6803F070627B688F
:10372000DB6A1B069A4201D0012300E00023184601
:103730001837BD4680BD00BF0038024080B584B058
:1037400000AF786039607B68002B01D10123CCE0A9
:10375000684B1B6803F007033A689A420CD9654B23
:103760003A68D2B21A70634B1B6803F007033A68D9
:103770009A4201D00123B8E07B681B6803F0020382
:10378000002B20D07B681B6803F00403002B05D0BE
:10379000594B9B68584A43F4E05393607B681B681D
:1037A00003F00803002B05D0534B9B68524A43F4A7
:1037B00060439360504B9B6823F0F0027B689B68EA
:1037C0004D4913438B607B681B6803F00103002B9A
:1037D00044D07B685B68012B07D1474B1B6803F41F
:1037E0000033002B19D101237FE07B685B68022B3B
:1037F00003D07B685B68032B07D13F4B1B6803F04A
:103800000073002B09D101236FE03B4B1B6803F0D1
:103810000203002B01D1012367E0374B9B6823F0A3
:1038200003027B685B68344913438B60FEF7DCFE60
:10383000F8600AE0FEF7D8FE0246FB68D31A41F2B0
:103840008832934201D903234FE02B4B9B6803F04E
:103850000C027B685B689B009A42EBD1254B1B688E
:1038600003F007033A689A420CD2224B3A68D2B26C
:103870001A70204B1B6803F007033A689A4201D084
:10388000012332E07B681B6803F00403002B08D09F
:10389000194B9B6823F4E0527B68DB68164913439D
:1038A0008B607B681B6803F00803002B09D0124B68
:1038B0009B6823F460427B681B69DB000E4913435D
:1038C0008B6000F021F802460B4B9B681B0903F04C
:1038D0000F030A49CB5C22FA03F3094A1360094B30
:1038E0001B681846FEF73CFE002318461037BD46FD
:1038F00080BD00BF003C024000380240485600082E
:1039000034000020380000202DE9B04F90B000AF07
:1039100000237B630023FB6300233B630023BB6323
:10392000594B9B6803F00C03082B0DD0082B00F2B9
:10393000A180002B02D0042B03D09BE0534BBB6330
:103940009BE0534BBB6398E04F4B5B6803F03F0336
:103950007B634D4B5B6803F48003002B28D04A4BFC
:103960005B689B0900223B627A623B6AC3F30800F2
:103970000021474B03FB01F2002300FB03F3134438
:10398000434AA0FB0212FA620A46BA62FA6A134478
:10399000FB627B6B0022BB61FA61D7E90623D7E9A2
:1039A0000A01FCF775FC02460B461346FB6353E025
:1039B000354B5B689B0900223B617A613B69C3F32D
:1039C000080A4FF0000B52465B464FF000004FF0E4
:1039D0000001590141EAD261500102460B46B2EBA7
:1039E0000A0863EB0B094FF000024FF000034FEAA7
:1039F000891343EA98634FEA8812B2EB080463EB39
:103A000009054FF000024FF00003EB0043EA547346
:103A1000E20014461D4614EB0A033B6045EB0B0322
:103A20007B604FF000024FF00003D7E900452946C4
:103A30008B02214643EA915321468A0210461946D9
:103A40007B6B0022BB60FA60D7E90223FCF720FC05
:103A500002460B461346FB630B4B5B681B0C03F0E3
:103A6000030301335B003B63FA6B3B6BB2FBF3F385
:103A7000BB6302E0054BBB6300BFBB6B184640371E
:103A8000BD46BDE8B08F00BF003802400024F400FE
:103A900040787D0180B400AF034B1B681846BD46DB
:103AA0005DF8047B704700BF3400002080B500AF94
:103AB000FFF7F0FF0246054B9B689B0A03F00703E4
:103AC0000349CB5C22FA03F3184680BD003802405C
:103AD0005856000880B500AFFFF7DCFF0246054BE3
:103AE0009B685B0B03F007030349CB5C22FA03F3EB
:103AF000184680BD003802405856000880B582B094
:103B000000AF78607B68002B01D1012342E07B6825
:103B100093F84130DBB2002B06D17B68002283F89A
:103B200040207868FEF744FB7B68242283F841201C
:103B30007B681B68DA687B681B6822F40052DA60D5
:103B4000786800F0D3FD7B681B681A697B681B6886
:103B500022F490421A617B681B685A697B681B6873
:103B600022F02A025A617B681B68DA687B681B684E
:103B700042F40052DA607B6800225A647B6820229B
:103B800083F841207B68202283F842207B68002252
:103B90005A63002318460837BD4680BD80B58AB0F9
:103BA00002AFF860B9603B601346FB8000237B6185
:103BB000FB6893F84130DBB2202B75D1BB68002B3A
:103BC00002D0FB88002B01D101236EE0FB680022AC
:103BD0005A64FB68212283F84120FEF705FD7861D5
:103BE000FB68FA889A84FB68FA88DA84FB689B6829
:103BF000B3F5805F08D1FB681B69002B04D100235B
:103C0000FB61BB68BB6103E0BB68FB610023BB6178
:103C10002EE03B6800937B6900228021F86800F069
:103C200037FB0346002B05D0FB68202283F8412098
:103C300003233AE0FB69002B0BD1BB691B881A46B2
:103C4000FB681B68C2F308025A60BB690233BB61A0
:103C500007E0FB691A78FB681B685A60FB6901334F
:103C6000FB61FB68DB8C9BB2013B9AB2FB68DA8498
:103C7000FB68DB8C9BB2002BCBD13B6800937B694C
:103C800000224021F86800F003FB0346002B05D01A
:103C9000FB68202283F84120032306E0FB682022F2
:103CA00083F84120002300E0022318462037BD4658
:103CB00080BD80B584B000AFF860B9601346FB806A
:103CC000FB6893F84230DBB2202B12D1BB68002B8B
:103CD00002D0FB88002B01D101230BE0FB680022FE
:103CE0001A63FB881A46B968F86800F02AFB034695
:103CF00000E0022318461037BD4680BD80B5BAB03B
:103D000000AF78607B681B681B68C7F8E4307B688D
:103D10001B68DB68C7F8E0307B681B685B69C7F825
:103D2000DC300023C7F8D8300023C7F8D430D7F8E8
:103D3000E43003F00F03C7F8D830D7F8D830002BA1
:103D40000FD1D7F8E43003F02003002B09D0D7F8C7
:103D5000E03003F02003002B03D0786800F007FC6C
:103D600073E2D7F8D830002B00F0DE80D7F8DC30D3
:103D700003F00103002B06D1D7F8E03003F4907371
:103D8000002B00F0D180D7F8E43003F00103002BC2
:103D90000BD0D7F8E03003F48073002B05D07B689C
:103DA0005B6C43F001027B685A64D7F8E43003F09F
:103DB0000403002B0BD0D7F8DC3003F00103002BF9
:103DC00005D07B685B6C43F002027B685A64D7F8CD
:103DD000E43003F00203002B0BD0D7F8DC3003F003
:103DE0000103002B05D07B685B6C43F004027B6809
:103DF0005A64D7F8E43003F00803002B11D0D7F849
:103E0000E03003F02003002B05D1D7F8DC3003F0BD
:103E10000103002B05D07B685B6C43F008027B68D4
:103E20005A647B685B6C002B00F00A82D7F8E430A0
:103E300003F02003002B08D0D7F8E03003F0200374
:103E4000002B02D0786800F092FB7B681B685B69EE
:103E500003F04003402B0CBF01230023DBB2C7F863
:103E6000D4307B685B6C03F00803002B03D1D7F8D8
:103E7000D430002B4FD0786800F09DFA7B681B6827
:103E80005B6903F04003402B41D17B681B6814330E
:103E9000C7F89C30D7F89C3053E8003FC7F89830FB
:103EA000D7F8983023F04003C7F8D0307B681B6800
:103EB0001433D7F8D020C7F8A820C7F8A430D7F813
:103EC000A410D7F8A82041E80023C7F8A030D7F8FD
:103ED000A030002BD9D17B68DB6B002B13D07B6823
:103EE000DB6B8A4A1A657B68DB6B1846FEF709FDB7
:103EF0000346002B16D07B68DB6B1B6D7A68D26B98
:103F0000104698470EE0786800F0ACF90AE078684F
:103F100000F0A8F906E0786800F0A4F97B680022B8
:103F20005A648DE100BF8BE17B681B6B012B40F075
:103F30006781D7F8E43003F01003002B00F06081B4
:103F4000D7F8E03003F01003002B00F05981002374
:103F5000BB607B681B681B68BB607B681B685B6819
:103F6000BB60BB687B681B685B6903F04003402B48
:103F700040F0CE807B68DB6B1B685B68A7F8BE30C7
:103F8000B7F8BE30002B00F0A9807B689B8DB7F896
:103F9000BE209A4280F0A2807B68B7F8BE20DA8506
:103FA0007B68DB6BDB69B3F5807F00F088807B6822
:103FB0001B680C33C7F88830D7F8883053E8003FC7
:103FC000C7F88430D7F8843023F48073C7F8B8304A
:103FD0007B681B680C33D7F8B820C7F89420C7F863
:103FE0009030D7F89010D7F8942041E80023C7F814
:103FF0008C30D7F88C30002BD9D17B681B681433F8
:104000007B677B6F53E8003F3B673B6F23F0010307
:10401000C7F8B4307B681B681433D7F8B420C7F8EE
:104020008020FB67F96FD7F8802041E80023BB6749
:10403000BB6F002BE1D17B681B6814333B663B6E82
:1040400053E8003FFB65FB6D23F04003C7F8B03039
:104050007B681B681433D7F8B020FA66BB66B96E6C
:10406000FA6E41E800237B667B6E002BE3D17B6810
:10407000202283F842207B6800221A637B681B6839
:104080000C33FB64FB6C53E8003FBB64BB6C23F058
:104090001003C7F8AC307B681B680C33D7F8AC2032
:1040A000BA657B65796DBA6D41E800233B653B6D70
:1040B000002BE3D17B68DB6B1846FEF7B2FB7B6815
:1040C00002225A637B689A8D7B68DB8D9BB2D31A80
:1040D0009BB21946786800F0CFF8B3E07B689B8DFF
:1040E000B7F8BE209A4240F0AD807B68DB6BDB699D
:1040F000B3F5807F40F0A6807B6802225A637B681C
:104100009B8D1946786800F0B7F89BE07D44000865
:104110007B689A8D7B68DB8D9BB2D31AA7F8CE3073
:104120007B68DB8D9BB2002B00F08E80B7F8CE3021
:10413000002B00F089807B681B680C33BB63BB6B72
:1041400053E8003F7B637B6B23F49073C7F8C83060
:104150007B681B680C33D7F8C8207A643B64396CE1
:104160007A6C41E80023FB63FB6B002BE3D17B6897
:104170001B6814337B627B6A53E8003F3B623B6AF7
:1041800023F00103C7F8C4307B681B681433D7F8E9
:10419000C4203A63FB62F96A3A6B41E80023BB62D0
:1041A000BB6A002BE3D17B68202283F842207B6826
:1041B00000221A637B681B680C333B613B6953E840
:1041C000003FFB60FB6823F01003C7F8C0307B683A
:1041D0001B680C33D7F8C020FA61BB61B969FA6972
:1041E00041E800237B617B69002BE3D17B680222DD
:1041F0005A63B7F8CE301946786800F03DF823E0EE
:10420000D7F8E43003F08003002B09D0D7F8E03072
:1042100003F08003002B03D0786800F040F914E02D
:10422000D7F8E43003F04003002B0ED0D7F8E0308D
:1042300003F04003002B08D0786800F080F904E018
:1042400000BF02E000BF00E000BFE837BD4680BD10
:1042500080B483B000AF786000BF0C37BD465DF816
:10426000047B704780B483B000AF786000BF0C3728
:10427000BD465DF8047B704780B483B000AF7860C2
:104280000B467B8000BF0C37BD465DF8047B704752
:1042900080B586B000AFF860B9603B601346FB7133
:1042A0003BE03B6AB3F1FF3F37D0FEF79DF9024692
:1042B0003B68D31A3A6A9A4202D33B6A002B01D177
:1042C00003233AE0FB681B68DB6803F00403002B60
:1042D00023D0BB68802B20D0BB68402B1DD0FB684F
:1042E0001B681B6803F00803082B16D100237B61B1
:1042F000FB681B681B687B61FB681B685B687B61F4
:104300007B69F86800F057F8FB6808225A64FB687C
:10431000002283F8402001230FE0FB681B681A6825
:10432000BB681340BA689A420CBF01230023DBB27A
:104330001A46FB799A42B4D0002318461837BD4676
:1043400080BD80B485B000AFF860B9601346FB80D3
:10435000FB68BA689A62FB68FA889A85FB68FA88F3
:10436000DA85FB6800225A64FB68222283F8422027
:10437000FB681B69002B07D0FB681B68DA68FB68C9
:104380001B6842F48072DA60FB681B685A69FB683C
:104390001B6842F001025A61FB681B68DA68FB681F
:1043A0001B6842F02002DA60002318461437BD462D
:1043B0005DF8047B704780B495B000AF78607B688F
:1043C0001B680C337B637B6B53E8003F3B633B6BA9
:1043D00023F49073FB647B681B680C33FA6C3A64BB
:1043E000FB63F96B3A6C41E80023BB63BB6B002BAA
:1043F000E5D17B681B6814333B623B6A53E8003F9E
:10440000FB61FB6923F00103BB647B681B68143309
:10441000BA6CFA62BB62B96AFA6A41E800237B624D
:104420007B6A002BE5D17B681B6B012B19D17B6864
:104430001B680C33FB60FB6853E8003FBB60BB6844
:1044400023F010037B647B681B680C337A6CBA61C1
:104450007B617969BA6941E800233B613B69002BC4
:10446000E5D17B68202283F842207B6800221A6312
:1044700000BF5437BD465DF8047B704780B584B0FB
:1044800000AF78607B689B6BFB60FB680022DA857D
:10449000F868FFF7E7FE00BF1037BD4680BD80B467
:1044A00085B000AF78607B6893F84130DBB2212B98
:1044B0003ED17B689B68B3F5805F14D17B681B6934
:1044C000002B10D17B681B6AFB60FB681B881A46B7
:1044D0007B681B68C2F308025A607B681B6A9A1CDF
:1044E0007B681A6208E07B681B6A591C7A68116253
:1044F0001A787B681B685A607B68DB8C9BB2013B37
:104500009BB27A681946D184002B0FD17B681B6857
:10451000DA687B681B6822F08002DA607B681B68BF
:10452000DA687B681B6842F04002DA60002300E032
:10453000022318461437BD465DF8047B704780B5EA
:1045400082B000AF78607B681B68DA687B681B68A4
:1045500022F04002DA607B68202283F841207868EC
:10456000FFF776FE002318460837BD4680BD80B5AC
:104570008CB000AF78600023FB620023BB627B68D5
:1045800093F84230DBB2222B40F0AA807B689B6814
:10459000B3F5805F15D17B681B69002B11D17B6857
:1045A0009B6ABB627B681B685B689BB2C3F30803B2
:1045B0009AB2BB6A1A807B689B6A9A1C7B689A6273
:1045C00024E07B689B6AFB627B689B68B3F5805F35
:1045D00007D07B689B68002B0AD17B681B69002B86
:1045E00006D17B681B685B68DAB2FB6A1A7008E068
:1045F0007B681B685B68DBB203F07F03DAB2FB6A9F
:104600001A707B689B6A5A1C7B689A627B68DB8D98
:104610009BB2013B9BB27A681946D185002B5DD1D4
:104620007B681B68DA687B681B6822F02002DA600E
:104630007B681B68DA687B681B6822F48072DA602A
:104640007B681B685A697B681B6822F001025A610B
:104650007B68202283F842207B6800225A637B68B3
:104660001B6B012B35D17B6800221A637B681B68AA
:104670000C337B617B6953E8003F3B613B6923F06E
:1046800010037B627B681B680C337A6A3A62FB61B9
:10469000F9693A6A41E80023BB61BB69002BE5D1A7
:1046A0007B681B681B6803F01003102B0AD10023E2
:1046B000FB607B681B681B68FB607B681B685B6832
:1046C000FB60FB687B689B8D19467868FFF7D4FD1B
:1046D00002E07868FDF7A2FC002302E0002300E07E
:1046E000022318463037BD4680BD00002DE9B04F8B
:1046F000C0B000AFC7F8F400D7F8F4301B681B69EE
:1047000023F44050D7F8F430D968D7F8F4301A6859
:1047100040EA01031361D7F8F4309A68D7F8F4300F
:104720001B691A43D7F8F4305B691A43D7F8F430A1
:10473000DB691343C7F8F830D7F8F4301B68DB683F
:1047400023F4164121F00C01D7F8F4301A68D7F899
:10475000F8300B43D360D7F8F4301B685B6923F45F
:104760004070D7F8F4309969D7F8F4301A6840EA05
:1047700001035361D7F8F4301A688F4B9A4205D081
:10478000D7F8F4301A688D4B9A4204D1FFF7A2F99A
:10479000C7F8FC0003E0FFF789F9C7F8FC00D7F879
:1047A000F430DB69B3F5004F40F00C81D7F8FC30F2
:1047B0000022C7F8E830C7F8EC20D7E93A4522468E
:1047C0002B469118B9655B41FB65D7E91623214655
:1047D00012EB0108294643EB01094FF000024FF0AC
:1047E00000034FEAC90343EA58734FEAC8029046F0
:1047F0009946234618EB0303C7F8E0302B4649EBF4
:104800000303C7F8E430D7F8F4305B680022C7F838
:10481000D830C7F8DC20D7E936120B46DB183B65E9
:10482000134642EB03037B65D7E91423D7E938012C
:10483000FBF72EFD02460B46614BA3FB02235B09EF
:104840001C01D7F8FC300022C7F8D030C7F8D420BC
:10485000D7E9348942464B469118B9645B41FB6401
:10486000D7E91223414612EB010A494643EB010BFB
:104870004FF000024FF000034FEACB0343EA5A73B4
:104880004FEACA0292469B4643461AEB0303C7F817
:10489000C8304B464BEB0303C7F8CC30D7F8F430A5
:1048A0005B680022C7F8C030C7F8C420D7E93012CF
:1048B0000B46DB183B64134642EB03037B64D7E9EA
:1048C0001023D7E93201FBF7E3FC02460B46114601
:1048D0003B4BA3FB01235B09642202FB03F3CB1ACE
:1048E000DB0003F13202364BA3FB02235B095B00C2
:1048F00003F4F8731C44D7F8FC300022C7F8B83032
:10490000C7F8BC20D7E92E8942464B469118B963B7
:104910005B41FB63D7E90E23414651183963494691
:104920004B417B634FF000024FF00003D7E90CAB23
:104930005946CB00514643EA51735146CA001046CE
:104940001946034642469B18C7F8B0304B460A4604
:1049500042EB0303C7F8B430D7F8F4305B680022A9
:10496000C7F8A830C7F8AC20D7E92A120B46DB18E5
:10497000BB62134642EB0303FB62D7E90A23D7E984
:104980002C01FBF785FC02460B460D4BA3FB0213E3
:104990005B09642101FB03F3D31ADB003233084ABD
:1049A000A2FB03235B0903F00702D7F8F4301B686E
:1049B00022449A6006E100BF00100140001401404B
:1049C0001F85EB51D7F8FC300022C7F8A030C7F89C
:1049D000A420D7E9288942464B46911839625B41A9
:1049E0007B62D7E9082341465418494643EB010549
:1049F0004FF000024FF00003EB0043EA5473E20073
:104A000014461D464346E318C7F898304B4645EB1D
:104A10000303C7F89C30D7F8F4305B680022C7F86E
:104A20009030C7F894204FF000024FF00003D7E910
:104A3000244529468B00214643EA917321468A008A
:104A4000D7E92601FBF724FC02460B46604BA3FB8B
:104A500002235B091C01D7F8FC300022C7F888301C
:104A6000C7F88C20D7E9228942464B469118B96194
:104A70005B41FB61D7E9062341465118396149463C
:104A80004B417B614FF000024FF00003D7E904ABCC
:104A90005946CB00514643EA51735146CA0010466D
:104AA0001946034642469B18C7F880304B460A46D3
:104AB00042EB0303C7F88430D7F8F4305B68002278
:104AC000BB67FA674FF000024FF00003D7E91E8979
:104AD00049468B00414643EA917341468A00D7E933
:104AE0002001FBF7D5FB02460B461146384BA3FBD2
:104AF00001235B09642202FB03F3CB1A1B0132334F
:104B0000334AA2FB03235B0903F0F0031C44D7F8EC
:104B1000FC3000223B677A67D7E91C8942464B4646
:104B20009118B9605B41FB60D7E9022341465118F7
:104B3000396049464B417B604FF000024FF0000363
:104B4000D7E900AB5946CB00514643EA5173514671
:104B5000CA0010461946034642469B18BB664B46A0
:104B60000A4642EB0303FB66D7F8F4305B68002289
:104B70003B667A664FF000024FF00003D7E91889D0
:104B800049468B00414643EA917341468A00D7E982
:104B90001A01FBF77DFB02460B460D4BA3FB0213EC
:104BA0005B09642101FB03F3D31A1B013233084A6A
:104BB000A2FB03235B0903F00F02D7F8F4301B6854
:104BC00022449A6000BF07F58077BD46BDE8B08FEC
:104BD0001F85EB5170B50F4E0C463168054611B973
:104BE00000F002F930602146284600F0FDF8431C31
:104BF00003D14FF0FF34204670BDC41C24F00304E1
:104C0000A042F8D0211A284600F0EEF80130F2D187
:104C1000EFE700BFC82300202DE9F843CD1C25F0A5
:104C2000030508350C2D38BF0C25002D064601DB89
:104C3000A94204D90C2333600020BDE8F883DFF8D3
:104C4000D48000F069F8D8F800301C4644BB2946EF
:104C50003046FFF7BFFF431C044658D1D8F8004048
:104C60002746002F43D1002C4BD0236839463046CD
:104C700004EB030900F0B8F8814542D121686D1AB0
:104C800029463046FFF7A6FF01303AD023682B446F
:104C90002360D8F800305A6862BBC8F800700FE093
:104CA0002268521B20D40B2A17D96119A342256010
:104CB00018BF5960636808BFC8F8001062514B60A4
:104CC000304600F02FF804F10B00231D20F0070000
:104CD000C21A1CBF1B1AA350AFE76268A3420CBFE5
:104CE000C8F800205A60EBE723466468AEE73C460C
:104CF0007F68B6E71A465B68A342FBD10023536086
:104D0000DEE70C233360304600F00CF894E70560D2
:104D1000D6E700BFCC230020014800F09FB800BFB9
:104D20000C250020014800F09AB800BF0C25002097
:104D300030B51446002C9BB005461A4605DA8B2385
:104D400003604FF0FF301BB030BD4FF40273ADF87D
:104D50000C3014BF04F1FF332346029305934FF642
:104D6000FF7300910491ADF80E3069461E9B00F070
:104D70002BF9431CBCBF8B232B60002CE3D0009B82
:104D800000221A70DFE7000007B5009313460A46B9
:104D9000014603480068FFF7CBFF03B05DF804FB52
:104DA00060000020884210B501EB020402D9844261
:104DB000234607D8431EA14208D011F8012B03F85F
:104DC000012FF8E7024401468A4200D110BD13F8D2
:104DD000014D02F8014DF7E702440346934200D12A
:104DE000704703F8011BF9E738B5064D0023044668
:104DF00008462B60FDF766FA431C02D12B6803B10D
:104E0000236038BD08250020014B1868704700BF9B
:104E10006000002070B50D4D0D4C641BA4100026E1
:104E2000A64209D10B4D0C4C00F08EFB641BA41064
:104E30000026A64205D170BD55F8043B98470136BF
:104E4000EEE755F8043B98470136F2E79C56000818
:104E50009C5600089C560008A056000870477047F2
:104E60000A44914200F1FF3300D1704710B511F8A8
:104E7000014B03F8014F9142F9D110BD38B50546F9
:104E8000002941D051F8043C0C1F002BB8BFE41896
:104E9000FFF742FF1D4A136833B963601460284668
:104EA000BDE83840FFF73EBFA34208D9206821186B
:104EB0008B4201BF19685B6809182160EDE71A464B
:104EC0005B680BB1A342FAD911685018A0420BD10C
:104ED00020680144501883421160E0D118685B6873
:104EE000536008441060DAE702D90C232B60D6E740
:104EF000206821188B4204BF19685B68636004BF97
:104F0000091821605460CAE738BD00BFCC230020D7
:104F10002DE9F0478E681F46BE420B6882460C465C
:104F200090462DD8B1F90C2012F4906F26D0656907
:104F3000096905EB4505A3EB010905EBD5757B1C5C
:104F40004B446D109D4238BF1D46530527D5294659
:104F5000FFF762FE064660B321694A46FFF780FF0D
:104F6000A38923F4906343F08003A38126616561E4
:104F70004E44A5EB09052660A5603E46BE4200D919
:104F80003E46206832464146FFF70CFFA3689B1B54
:104F9000A3602368334423600020BDE8F0872A46DD
:104FA00000F09CFA06460028E0D121695046FFF740
:104FB00065FF0C23CAF80030A38943F04003A381A6
:104FC0004FF0FF30E9E700002DE9F04F98468B895C
:104FD0001B069DB007460D46144610D50B6973B9E4
:104FE0004021FFF719FE2860286130B90C233B608F
:104FF0004FF0FF301DB0BDE8F08F40236B61002300
:10500000099320238DF82930CDF80C803023DFF868
:105010009C818DF82A304FF0010923469A4613F8F7
:10502000012B0AB1252AF9D1BAEB040B0BD05B4650
:10503000224629463846FFF76BFF013000F0A78073
:10504000099A5A4409929AF80030002B00F09F8088
:1050500000234FF0FF32CDE905230AF1010A049342
:1050600007938DF853301A935446052214F8011B08
:105070004E48FBF7BDF8049AD8B9D00644BF2023A8
:105080008DF85330110744BF2B238DF853309AF815
:1050900000302A2B15D0079A544600204FF00A0CF6
:1050A000214611F8013B303B092B4BD9B0B1079297
:1050B00014E0A0EB080309FA03F313430493A24698
:1050C000D2E7039B191D1B680391002BBBBF5B42FA
:1050D00042F0020207930793B8BF049223782E2B65
:1050E0000AD163782A2B32D1039B1A1D1B680392C5
:1050F00043EAE37302340593DFF8C0A0217803226A
:105100005046FBF775F838B1049BA0EB0A0040222B
:10511000824013430134049314F8011B24488DF892
:1051200028100622FBF764F8002836D0214B1BBB61
:10513000039B073323F0070308330393099B33448E
:1051400009936AE70CFB02320C460120A8E7002312
:105150000134059319464FF00A0C204610F8012B34
:10516000303A092A03D9002BC6D00591C4E70CFBBD
:10517000012104460123F0E703AB00932A460E4BBE
:1051800004A93846AFF30080421C0646D6D1AB894D
:105190005B063FF52DAF09982CE703AB00932A4639
:1051A000054B04A9384600F079F8EDE76056000891
:1051B0006A56000800000000114F000866560008FB
:1051C0002DE9F047164698468A680B69DDF820906D
:1051D0009342B8BF1346336091F8432007460C460C
:1051E0000AB1013333602368990642BF3368023342
:1051F0003360256815F0060506D104F1190AE36845
:1052000032689B1AAB4226DC94F843302268003B9C
:1052100018BF012392062BD404F1430241463846BD
:10522000C84701301ED02368226903F00603042B0F
:1052300002BFE5683368ED1AA3680CBF25EAE5757F
:1052400000259342C4BF9B1AED1800261A34B542BC
:105250001AD1002008E00123524641463846C8478B
:10526000013003D14FF0FF30BDE8F0870135C6E7CC
:10527000E1185A1C302081F84300224494F845106C
:1052800082F843100233C7E70123224641463846DD
:10529000C8470130E6D00136D9E700002DE9FF47C5
:1052A0000F7E0C9E782F914680460C469A4601F15F
:1052B000430207D8622F0AD8002F00F0D280582F5F
:1052C00000F0B98004F1420684F842703AE0A7F198
:1052D0006303152BF6D801A151F823F035530008CC
:1052E00049530008C5520008C5520008C5520008BD
:1052F000C552000849530008C5520008C5520008AD
:10530000C5520008C55200084954000873530008EC
:1053100003540008C5520008C55200086B54000829
:10532000C552000873530008C5520008C552000852
:105330000B54000833681A1D1B68326004F14206E2
:1053400084F8423001239DE033682068191D3160E4
:10535000060601D51D6803E04506FBD5B3F90050EC
:10536000002D03DA2D236D4284F8433059480A2377
:1053700011E021683368080653F8045B02D449063B
:1053800048BFADB26F2F5348336014BF0A230823C0
:10539000002184F843106668A660002EA2BF216831
:1053A00021F0040121600DB9002E4BD01646B5FB4B
:1053B000F3F103FB1157C75D06F8017D2F46BB4291
:1053C0000D46F4D9082B0BD12368DF0708D52369D4
:1053D00061689942DEBF302306F8013C06F1FF36D2
:1053E000921B2261CDF800A04B4603AA21464046FD
:1053F000FFF7E6FE01304AD14FF0FF3004B0BDE8C0
:10540000F087236843F0200323603348782784F82B
:105410004570236831681F0651F8045B02D45F06AB
:1054200048BFADB23160D90744BF43F020032360C9
:105430001DB11023ACE72748E9E7236823F02003D8
:105440002360F6E71646BDE7336825686169181DD5
:1054500030602E061B6801D5196002E06806FBD596
:105460001980002323611646BCE733681A1D326099
:105470001E68626800213046FAF7BAFE08B1801B48
:10548000606063682361002384F84330AAE72369DE
:10549000324649464046D0470130ADD023689B078D
:1054A00013D4E068039B9842B8BF1846A6E70123CF
:1054B000324649464046D04701309DD00135E36829
:1054C00003995B1AAB42F2DCEBE7002504F1190605
:1054D000F5E700BF71560008825600082DE9F0413B
:1054E000804615460C4621B9BDE8F0411146FFF74C
:1054F00093BB2AB9FFF7C2FC00242046BDE8F08127
:1055000000F01AF88542064602D8B5EB500FF4D8E1
:1055100029464046FFF780FB07460028ECD0B542FD
:105520002A46214628BF3246FFF79AFC21464046CC
:10553000FFF7A4FC3C46E0E751F8043C181F002BA1
:10554000BCBF0B58C0187047F8B500BFF8BC08BC0A
:105550009E467047F8B500BFF8BC08BC9E46704731
:1055600001020304050607080102030405060708F3
:10557000506C61696E74657874203A2025730D0A49
:1055800000000000456E63727970746564203A20F3
:1055900000000000456E74657220796F757220748A
:1055A000657874206F6E6C7920313620627974656D
:1055B000203A200053697A65203A2025690D0A00B7
:1055C000456E63727970746564204D6573736167AD
:1055D00065203A2000000000526561642066726F09
:1055E0006D20454550524F4D20203A2000000000CC
:1055F000456E63727970746564204641696C6564B8
:105600002021210A0D0000004572726F72202121B5
:1056100020596F7520456E74657265642057726FEE
:105620006E67206E756D62657273206F6620627999
:105630007465730D0A000000257300002530325890
:10564000000000000A0D0000000000000000000043
:105650000102030406070809000000000102030418
:10566000232D302B2000686C4C006566674546474B
:1056700000303132333435363738394142434445CE
:10568000460030313233343536373839616263643D
:04569000656600004B
:085694004CABFF7F0100000098
:04569C00C50100083C
:0456A000A10100085C
:1056A400D94D00082B7E151628AED2A6ABF7158867
:1056B40009CF4F3C762C2F726C1B0F124F9831235D
:1056C400456789AB6161626263636464656566664C
:1056D400676768680024F4001000000001000000FF
:1056E40000000000000000000000000000000000B6
:1056F40001000000000000000000000000000000A5
:105704006400002000000000D02300203824002082
:10571400A0240020000000000000000000000000A1
:105724000000000000000000000000000000000075
:105734000000000000000000000000000000000065
:105744000000000000000000000000000000000055
:040000050800235577
:00000001FF
